:020000040800F2
:1000000000000220B9020008C1020008C502000871
:100010000D03000811030008590300080000000048
:10002000000000000000000000000000A103000824
:10003000A503000800000000A9030008591A0008E1
:10004000BD030008BD030008BD030008BD03000890
:10005000BD030008BD030008BD030008BD03000880
:10006000BD030008BD030008BD030008BD03000870
:10007000BD030008BD030008BD030008BD03000860
:10008000BD030008BD030008BD030008BD03000850
:10009000BD030008BD030008BD030008BD03000840
:1000A000BD030008BD030008BD030008BD03000830
:1000B000BD030008BD030008BD030008BD03000820
:1000C000BD030008BD030008BD030008BD03000810
:1000D000BD030008BD030008BD030008BD03000800
:1000E000BD030008BD030008BD030008BD030008F0
:1000F000BD030008BD030008BD030008BD030008E0
:10010000BD030008BD030008BD030008BD030008CF
:10011000BD030008BD030008BD030008BD030008BF
:10012000BD030008BD030008BD030008BD030008AF
:10013000BD0300080000000000000000BD0300082F
:10014000BD030008BD030008BD030008BD0300088F
:10015000BD030008BD030008BD030008BD0300087F
:10016000BD030008BD030008BD030008BD0300086F
:10017000BD030008BD0300080000000000000000EF
:10018000BD030008BD03000800B583B001F066FBA5
:10019000384B394A1360394A136039490CE00A6810
:1001A0004B6801F10C04886803E01168196004339E
:1001B00004329842F9D82146324B9942EFD32E4B64
:1001C0001A68314B9A4204D12C4B1A682F4B9A4231
:1001D00000D0FEE7274B2E4A13602E4A13602E4BA9
:1001E0000AE0194651F8082B5B6802E00020106015
:1001F00004329A42FAD30B46284A9342F1D3244B55
:100200001B6813B9234B1B6803B1FEE701F07EFCAA
:10021000694601A801F0C0FA214C224B1C1BA41016
:10022000002504E01E4B53F8253098470135AC42B9
:10023000F8DC1D4C1D4B1C1BA410002504E01A4BC0
:1002400053F8253098470135AC42F8DC0099019805
:1002500001F0A6FC0546164C164B1C1BA41004E02E
:10026000013C134B53F824309847002CF8DC284607
:1002700001F064FABABADECA00000020840000204F
:10028000C0030008D8030008785634123254769818
:10029000880000207C020020D8030008E803000842
:1002A000E8030008E8030008E8030008E803000882
:1002B000E8030008E803000808B5FFF765FF00BF82
:1002C00000BEFEE71EF0040F0CBFEFF30880EFF353
:1002D00009807146364A10472DE9F04182B0044644
:1002E0008846084B5E6B9F6B9D6A074801F066FA73
:1002F000CDF800803B4632462946204601F0BAFA46
:1003000000BEFEE700ED00E0B427000800BEFEE7F7
:100310001EF0040F0CBFEFF30880EFF30980714665
:10032000244A10472DE9F04182B004468846084B24
:100330005E6B9F6B9D6A074801F040FACDF8008024
:100340003B4632462946204601F094FA00BEFEE7BD
:1003500000ED00E0C42700081EF0040F0CBFEFF30F
:100360000880EFF309807146134A10472DE9F041E8
:1003700082B004468846084B5E6B9F6B9D6A0748B7
:1003800001F01CFACDF800803B4632462946204653
:1003900001F070FA00BEFEE700ED00E0D027000893
:1003A00000BEFEE700BEFEE700BEFEE770470000AD
:1003B000D9020008250300086D03000800BEFEE70F
:1003C00024280008000000208800002024280008BD
:1003D00000000010000000108800002080020020B3
:0803E0000000001000000010F5
:1003F00010B50446074B1B680748A0FB0330800973
:1004000000F094F8002221464FF0FF3000F04CF845
:10041000002010BD0C000020D34D621008B50B4B1E
:100420001A6842F400721A601A6842F480621A6014
:100430001A6842F480721A60032000F017F80F2047
:10044000FFF7D6FF01F0CCFB002008BD003C0240C6
:10045000024A136801331360704700BF1C0100207B
:10046000014B1868704700BF1C01002010B50446FE
:10047000C31E042B03D9A421094801F095F9094AA8
:10048000D36823F4E0631B041B0C240204F4E0642F
:10049000234343F0BF6343F40033D36010BD00BF78
:1004A0001825000800ED00E070B504460E4615461C
:1004B0000F2A03D9BC211A4801F076F90F2E03D96F
:1004C000BD21174801F070F9164BDA68C2F3022219
:1004D000C2F10701042928BF0421131D062B01D9ED
:1004E000033A00E00022012303FA01F1013931400F
:1004F000914003FA02F2013A2A400A43002C06DA3C
:1005000004F00F041201D2B2074B1A5570BD12014C
:10051000D2B204F1604404F5614484F8002370BD54
:100520001825000800ED00E014ED00E00138B0F1FE
:10053000807F0AD2064B5860F021064A82F82310C9
:100540000020986007221A6070470120704700BFA2
:1005500010E000E000ED00E010B50446042805D0EE
:1005600020B140F2B311084801F01EF9042C05D166
:10057000064A136843F00403136010BD034A13686E
:1005800023F00403136010BD1825000810E000E0FC
:100590002DE9F04782B080460F46A14B984223D008
:1005A00003F5806398421FD003F5806398421BD007
:1005B00003F58063984217D003F58063984213D007
:1005C00003F5806398420FD003F5806398420BD007
:1005D00003F58063984207D003F58063984203D007
:1005E000C521904801F0E0F83B881BB9C6218D4831
:1005F00001F0DAF87B68012B22D9112B20D0022BD5
:100600001ED0122B1CD0884A934219D002F58012BA
:10061000934215D002F58012934211D0A2F5F81240
:1006200093420DD002F58012934209D002F5801258
:10063000934205D0032B03D0C7217A4801F0B4F8C8
:10064000BB68022B03D9C821764801F0ADF800251C
:1006500026E10124AC403E682640B44240F01F81B0
:100660007B68022B01D0122B45D13B699BB3092B30
:1006700031D083B37BB373B36BB3012B2BD02AD0B0
:10068000022B28D027D026D0032B24D0042B22D015
:1006900021D020D0052B1ED01DD0092B1BD0062B1E
:1006A00019D0092B17D0072B15D014D013D0082B35
:1006B00011D010D00FD0092B0DD00CD00A2B0AD09E
:1006C00009D00C2B07D006D005D00F2B03D0D92191
:1006D000544801F069F8EA08083258F8220005F099
:1006E000070399000F238B4020EA03003B698B40EE
:1006F000034348F82230D8F800304FEA450A4FF05B
:10070000030909FA0AF96FEA090903EA09027B6891
:1007100003F0030303FA0AF31343C8F800307B68BD
:100720005A1E012A03D9112B01D0122B1BD1FB68B1
:10073000032B03D9EC213B4801F036F8D8F80830F8
:1007400009EA0302FB6803FA0AF31343C8F8083006
:10075000D8F8043023EA04047B68C3F30013AB40E9
:100760001C43C8F80440D8F80C3009EA0309BB68F8
:1007700003FA0AF349EA0303C8F80C307B6813F064
:10078000805F00F08C8000230193284B5A6C42F468
:1007900080425A645B6C03F480430193019BA90877
:1007A0008A1C234B53F8220005F003039B000F2201
:1007B0009A4020EA02001A4A904521D002F5806250
:1007C00090451FD002F5806290451DD002F58062F1
:1007D00090451BD002F58062904519D002F58062E9
:1007E000904517D002F58062904515D002F58062E1
:1007F000904513D002F5806290451BD108221AE083
:10080000002218E0012216E0022214E0032212E086
:10081000042210E005220EE006220CE007220AE086
:10082000000002404C250008000011100038024072
:1008300000380140092202FA03F3034302311B4A44
:1008400042F821301A4B1A68F34302EA0301786830
:1008500010F4803F01D046EA0201154A1160526847
:1008600003EA0201786810F4003F01D046EA020171
:100870000F4A5160926803EA0201786810F4801F01
:1008800001D046EA02010A4A9160D26813407968B1
:1008900011F4001F01D046EA0203054AD360013576
:1008A0000F2D7FF6D6AE02B0BDE8F08700380140CC
:1008B000003C014030B583B0044603680F2B03D9D8
:1008C000F5219C4800F070FF236813F0010F45D01C
:1008D0006368012B05D9052B03D0FA21954800F058
:1008E00063FF954B9B6803F00C03042B0AD0924BDB
:1008F0009B6803F00C03082B0CD18F4B5B6813F43F
:10090000800F07D08C4B1B6813F4003F26D0636820
:1009100023BBCCE12279894B1A7063687BB1FFF766
:100920009FFD054605E0FFF79BFD401B642800F294
:10093000C081814B1B6813F4003FF4D00EE0FFF739
:100940008FFD054605E0FFF78BFD401B642800F294
:10095000B281794B1B6813F4003FF4D1236813F084
:10096000020F6AD0E368012B04D94FF496717148E5
:1009700000F01AFF23691F2B04D940F22D116D4896
:1009800000F012FF6C4B9B6813F00C0F0AD06A4BFF
:100990009B6803F00C03082B1BD1674B5B6813F4B7
:1009A000800F16D1644B1B6813F0020F03D0E3686D
:1009B000012B40F082816048036823F0F80123692D
:1009C000F82292FAA2F2B2FA82F293400B43036049
:1009D00033E0E368FBB10122594B1A60FFF740FD99
:1009E000054605E0FFF73CFD401B022800F2678149
:1009F000514B1B6813F0020FF4D04F48036823F0EB
:100A0000F8012369F82292FAA2F2B2FA82F2934034
:100A10000B43036011E00022494B1A60FFF720FDF1
:100A2000054605E0FFF71CFD401B022800F2498146
:100A3000414B1B6813F0020FF4D1236813F0080F29
:100A40002ED06369012B04D940F26D11394800F0B2
:100A5000ABFE636993B101223A4B1A60FFF700FDC8
:100A6000054605E0FFF7FCFC401B022800F22B8145
:100A7000314B5B6F13F0020FF4D011E00022314BC9
:100A80001A60FFF7EDFC054605E0FFF7E9FC401BA7
:100A9000022800F21A81284B5B6F13F0020FF4D189
:100AA000236813F0040F60D0A368012B06D9052B2F
:100AB00004D040F297111F4800F076FE0023019306
:100AC0001D4B1A6C42F080521A641B6C03F0805369
:100AD0000193019B1C4A136843F480731360FFF772
:100AE000BFFC054605E0FFF7BBFC401B022800F2F7
:100AF000EE80154B1B6813F4807FF4D0227A134BE1
:100B00001A70A3688BB1FFF7ABFC054607E0FFF74F
:100B1000A7FC401B41F28833984200F2DA80064B72
:100B20001B6F13F0020FF2D01FE0FFF799FC054690
:100B300016E000BF8C250008003802400238024051
:100B400000004742800E474200700040703802406B
:100B5000FFF786FC401B41F28833984200F2BB80CD
:100B6000634B1B6F13F0020FF2D1A369022B04D960
:100B70004FF4E6715F4800F017FEA369002B00F008
:100B8000AC805B4A926802F00C02082A00F0A78051
:100B9000022B79D1E3693BB1B3F5800F04D040F269
:100BA000D511544800F000FE236A3F2B04D94FF4BE
:100BB000EB71504800F0F8FD636A323BB3F5BF7F3C
:100BC00004D940F2D7114B4800F0EEFDA36A022B86
:100BD0000AD0042B08D0062B06D0082B04D04FF4E3
:100BE000EC71444800F0E0FDE36A043B0B2B04D9B0
:100BF00040F2D9113F4800F0D7FD00223E4B1A6069
:100C0000FFF72EFC054604E0FFF72AFC401B0228F4
:100C100067D8374B1B6813F0007FF5D1E169236A71
:100C20001943636A47F6C07292FAA2F2B2FA82F2EC
:100C300093401943A36A5B085A1E4FF4403393FA5A
:100C4000A3F3B3FA83F302FA03F30B43E26A4FF020
:100C5000706191FAA1F1B1FA81F18A401343244AFB
:100C600053600122244B1A60FFF7FAFB044604E0AC
:100C7000FFF7F6FB001B022835D81D4B1B6813F04D
:100C8000007FF5D0002031E000221B4B1A60FFF7F7
:100C9000E7FB044604E0FFF7E3FB001B022824D82F
:100CA000134B1B6813F0007FF5D100201EE00120DC
:100CB0001CE003201AE0032018E0012016E00320C6
:100CC00014E0032012E0032010E003200EE00320D4
:100CD0000CE003200AE0032008E0002006E00120E9
:100CE00004E0032002E0032000E0032003B030BD55
:100CF000003802408C25000860004742244B9B6866
:100D000003F00C03042B3FD0082B01D0214870477F
:100D100010B41F4B586800F03F005B6813F4800F5D
:100D200010D01D4BB3FBF0F0194B5A6847F6C07159
:100D30000A4091FAA1F3B3FA83F322FA03F303FB17
:100D400000F310E0134BB3FBF0F0114B5A6847F679
:100D5000C07402EA040194FAA4F2B2FA82F221FA0F
:100D600002F202FB00F30A4A506800F440324FF4EA
:100D7000403090FAA0F0B0FA80F022FA00F0013092
:100D80004000B3FBF0F001E00348704710BC70472F
:100D9000003802400024F40040787D0170B504461C
:100DA0000D460368013B0E2B04D940F237218F48D2
:100DB00000F0FAFC072D04D94FF40E718B4800F0B7
:100DC000F3FC8B4B1B6803F00F039D4208D9EBB279
:100DD000874A1370136803F00F039D4240F0F480BC
:100DE000236813F0020F1DD0A368A3B1802B12D08B
:100DF000902B10D0A02B0ED0B02B0CD0C02B0AD033
:100E0000D02B08D0E02B06D0F02B04D040F24F219D
:100E1000764800F0C9FC77498B6823F0F002A3689C
:100E200013438B60236813F0010F6BD06368032BAF
:100E300004D940F256216D4800F0B6FC6268012AE0
:100E400005D16C4B1B6813F4003F0FD1BEE0931E1D
:100E5000012B05D8674B1B6813F0007F06D1B7E064
:100E6000644B1B6813F0020F00F0B48061498B687B
:100E700023F0030313438B60FFF7F2FA064663681F
:100E8000012B0FD107E0FFF7EBFA801B41F288330B
:100E9000984200F2A180574B9B6803F00C03042B8F
:100EA000F1D12FE0022B0FD107E0FFF7D9FA801B19
:100EB00041F28833984200F291804E4B9B6803F0D8
:100EC0000C03082BF1D11DE0032B16D107E0FFF72F
:100ED000C7FA801B41F28833984200F28180454B6B
:100EE0009B6803F00C030C2BF1D10BE0FFF7B8FA71
:100EF000801B41F28833984274D83E4B9B6813F0B4
:100F00000C0FF3D13A4B1B6803F00F039D4207D23D
:100F1000EAB2374B1A701B6803F00F039D4263D18E
:100F2000236813F0040F19D0E36883B1B3F5805F31
:100F30000DD0B3F5A05F0AD0B3F5C05F07D0B3F50D
:100F4000E05F04D04FF42D71284800F02DFC2949B2
:100F50008B6823F4E052E36813438B60236813F03B
:100F6000080F1AD0236983B1B3F5805F0DD0B3F5B4
:100F7000A05F0AD0B3F5C05F07D0B3F5E05F04D03F
:100F800040F2BB21194800F00FFC1A4A936823F481
:100F90006043216943EAC1039360FFF7AFFE154B3D
:100FA0009B6803F0F002F02393FAA3F3B3FA83F300
:100FB00022FA03F3104AD35CD840104B18600F207C
:100FC000FFF716FA002070BD012070BD012070BD32
:100FD000012070BD012070BD032070BD032070BDD5
:100FE000032070BD032070BD012070BD8C2500085A
:100FF000003C0240003802407C2500080C00002024
:10100000014B1868704700BF0C00002008B5FFF7BF
:10101000F7FF084B9B6803F4E0524FF4E05393FA58
:10102000A3F3B3FA83F322FA03F3034AD35CD84061
:1010300008BD00BF003802407C25000808B5FFF756
:10104000DFFF084B9B6803F460424FF4604393FA60
:10105000A3F3B3FA83F322FA03F3034AD35CD84031
:1010600008BD00BF003802407C2500082DE9F84388
:1010700004464268B14B9A4204D940F24F71B048DD
:1010800000F092FBE3683BB1B3F5005F04D04FF48E
:10109000EA61AB4800F088FB236953B1B3F5806F78
:1010A00007D0B3F5C06F04D040F25171A44800F0EE
:1010B0007BFB63694FF6F372134200D123B940F210
:1010C00052719F4800F070FB21680B6923F4405275
:1010D000E36813430B612068C36823F4164222F0CF
:1010E0000C02A1682369194363691943E3690B433F
:1010F0001343C36021684B6923F44072A36913430F
:101100004B61E369B3F5004F40F0BB80276803F102
:10111000804303F510439F4203D003F580639F4251
:1011200057D1FFF78BFF00EB800000EB8000656874
:101130006D00B0FBF5F5834EA6FB05356D092D015D
:10114000FFF77CFF00EB800000EB800063685B0032
:10115000B0FBF3F9FFF772FF00EB800000EB8000BB
:1011600063685B00B0FBF3F3A6FB03235B094FF05E
:10117000640808FB1393DB003233A6FB03235B09EF
:101180005B0003F4F8731D44FFF758FF00EB800089
:1011900000EB800063685B00B0FBF3F9FFF74EFFE4
:1011A00000EB800000EB800063685B00B0FBF3F3B2
:1011B000A6FB03235B0908FB13984FEAC80808F154
:1011C0003208A6FB0836C6F342163544BD60BDE8BA
:1011D000F883FFF71BFF00EB800000EB80006568E1
:1011E0006D00B0FBF5F5574EA6FB05356D092D01D9
:1011F000FFF70CFF00EB800000EB800063685B00F2
:10120000B0FBF3F9FFF702FF00EB800000EB80007A
:1012100063685B00B0FBF3F3A6FB03235B094FF0AD
:10122000640808FB1393DB003233A6FB03235B093E
:101230005B0003F4F8731D44FFF7E8FE00EB800049
:1012400000EB800063685B00B0FBF3F9FFF7DEFEA4
:1012500000EB800000EB800063685B00B0FBF3F301
:10126000A6FB03235B0908FB13984FEAC80808F1A3
:101270003208A6FB0836C6F342163544BD60BDE809
:10128000F8832668304B9E4203D003F580639E426C
:101290005CD1FFF7D3FE00EB800000EB80006568B7
:1012A000AD00B0FBF5F5274FA7FB05356D092D0106
:1012B000FFF7C4FE00EB800000EB800063689B003A
:1012C000B0FBF3F8FFF7BAFE00EB800000EB800004
:1012D00063689B00B0FBF3F3A7FB03235B094FF0AC
:1012E000640909FB13831B013233A7FB03235B094A
:1012F00003F0F0031D44FFF7A1FE00EB800000EBBC
:10130000800063689B00B0FBF3F8FFF797FE00EBEB
:10131000800000EB800063689B00B0FBF3F3A7FB49
:1013200003235B0909FB13831B013233A7FB032350
:10133000C3F343131D44B560BDE8F883A037A00094
:10134000BC2500081F85EB5100100140FFF75EFE31
:1013500000EB800000EB80006568AD00B0FBF5F5A8
:10136000254FA7FB05356D092D01FFF74FFE00EB5B
:10137000800000EB800063689B00B0FBF3F8FFF790
:1013800045FE00EB800000EB800063689B00B0FB33
:10139000F3F3A7FB03235B094FF0640909FB1383F5
:1013A0001B013233A7FB03235B0903F0F0031D4449
:1013B000FFF72CFE00EB800000EB800063689B00D1
:1013C000B0FBF3F8FFF722FE00EB800000EB80009B
:1013D00063689B00B0FBF3F3A7FB03235B0909FBE6
:1013E00013831B013233A7FB0323C3F343131D44B1
:1013F000B560BDE8F88300BF1F85EB512DE9F041D2
:1014000005460F4616469846069C1EE0B4F1FF3F7F
:101410001BD02CB1FFF724F8C8EB0000844214D293
:101420002A68D36823F4D073D3602A68536923F001
:1014300001035361202385F8393085F83A300023C1
:1014400085F838300320BDE8F0812B681B6837EA47
:1014500003030CBF01230023B342D7D00020BDE813
:10146000F08100BF704700BF002800F0868010B5F3
:10147000044683691BB30368414A93420FD0A2F527
:101480004C4293420BD002F58062934207D002F5A2
:101490004C42934203D0FE213A4800F085F9A369FB
:1014A00053B3B3F5807F27D0B3F5007F24D0B3F5D5
:1014B000407F21D0FF21334800F076F91CE003681B
:1014C0002F4A934218D0A2F54C42934214D002F511
:1014D0008062934210D002F5806293420CD002F5F4
:1014E0008062934208D002F54442934204D040F215
:1014F0000311244800F058F9A3683BB1B3F5805FAD
:1015000004D040F205111F4800F04EF9E3693BB1E9
:10151000B3F5004F04D04FF483711A4800F044F93A
:1015200094F8393013F0FF0F05D1002384F83830D8
:101530002046FFF797FF242384F839302268D368C8
:1015400023F40053D3602046FFF790FD226813690F
:1015500023F4904313612268536923F02A035361F3
:101560002268D36843F40053D3600020E063202353
:1015700084F8393084F83A3010BD0120704700BF3C
:1015800000100140BC2500082DE9F04182B01E4644
:1015900090F83930DBB2202B50D104460D46174667
:1015A00000294DD0002A4DD090F83830012B4BD077
:1015B000012380F838300023C363212380F83930B9
:1015C000FEF74EFF8046A784E78424E0013BE384D6
:1015D000A368B3F5805F12D10096434600228021B4
:1015E0002046FFF70BFF88BB22682B88C3F3080354
:1015F000536023690BB902350DE001350BE000960D
:101600004346002280212046FFF7F8FE00BB2368F6
:101610002A785A600135E38C002BD7D100964346D7
:10162000002240212046FFF7E9FE034690B9202220
:1016300084F83920002284F838200CE002230AE0E4
:10164000012308E0012306E0022304E0032302E073
:10165000032300E00323184602B0BDE8F08100BF79
:101660002DE9F04182B01E4690F83A30DBB2202BD3
:1016700055D104460D461746002952D0002A52D0B3
:1016800090F83830012B50D0012380F838300023F7
:10169000C363222380F83A30FEF7E2FE8046A78536
:1016A000E78532E0013BE385A368B3F5805F17D19E
:1016B00000964346002220212046FFF79FFE002887
:1016C00035D1236933B923685B68C3F3080325F870
:1016D000023B1AE023685B68DBB225F8013B14E0AB
:1016E00000964346002220212046FFF787FE00BBDC
:1016F000236923B923685B682B70013505E02368F3
:101700005B6803F07F032B700135E38D002BC9D19B
:10171000202384F83A30002084F838000AE00220C0
:1017200008E0012006E0012004E0022002E003209E
:1017300000E0032002B0BDE8F08100BFFEE700BF7B
:1017400008B5034800F052F80120FFF7F7FF00BF8B
:10175000EC25000808B50D4B1B6813B90C4A0B4B60
:101760001A600A4B1A68C31C23F003031344094987
:101770008B4206D900F036FA0C2303604FF0FF309D
:1017800008BD02490B60104608BD00BF8C00002058
:101790008002002000FC012001230360014B0B604C
:1017A000704700BF0400002008B50A460146024801
:1017B00000F004F8FFF7C4FF402600080FB400B59E
:1017C00083B004AB53F8042B01938021064800F04A
:1017D00043FA002803DD0146034800F03BF803B05C
:1017E0005DF804EB04B070479400002010B5044687
:1017F00000F0FEF90146204600F02CF801210248D5
:1018000000F028F810BD00BF3027000810B40022F7
:101810001AE04FF06043D3F8803E13F0010F06D07A
:101820004FF06043D3F8003E13F0010F01D1104692
:101830000DE04FF060431B68002BFAD004784FF0A6
:1018400060431C70013201308A42E2D3084610BC6A
:10185000704700BF08B5FFF7D9FF08BD08B500F015
:1018600081F8024B024A9A6008BD00BF00ED00E01B
:1018700000000008F8B504460D4617461E462648E7
:10188000FFF79CFF21682548FFF798FF616824480F
:10189000FFF794FFA1682348FFF790FFE168224813
:1018A000FFF78CFF21692148FFF788FF6169204815
:1018B000FFF784FFA1691F48FFF780FFE1691E4819
:1018C000FFF77CFF1D48FFF779FF29461C48FFF70B
:1018D00075FF1C4CE16A1C48FFF770FF216B1B4829
:1018E000FFF76CFFE16B1A48FFF768FF15F0800FF8
:1018F00003D039461748FFF761FF15F4004F03D0B6
:1019000031461548FFF75AFF1448FFF757FF06996D
:101910001348FFF753FFF8BD98260008A8260008D3
:10192000B8260008C8260008D8260008E8260008BF
:10193000F8260008082700081827000828270008AC
:101940003427000800ED00E0442700085427000871
:1019500064270008742700088427000894270008DB
:101960009C2700080C4B1A6842F001021A60002103
:1019700099601A6822F0847222F480321A60074A51
:101980005A601A6822F480221A60D9604FF000620F
:10199000034B9A60704700BF0038024010300024AB
:1019A00000ED00E0224B9B6803F00C03042B07D0F2
:1019B000082B09D0002B2DD11E4A1F4B1A602CE09A
:1019C0001E4A1D4B1A6028E0194B5A685B6803F0E9
:1019D0003F0312F4800F09D0184AB2FBF3F2144B04
:1019E0005B68C3F3881303FB02F208E0114AB2FB01
:1019F000F3F30F4A5168C1F3881101FB03F20C4B5A
:101A00005B68C3F3014301335B00B2FBF3F30A4AA3
:101A1000136002E0074A084B1A60054B9B68C3F34A
:101A20000313074AD15C044A1368CB401360704724
:101A3000003802400024F4000C00002040787D01B2
:101A4000E0270008034B1B681BB1024A1368013BE7
:101A5000136070472401002008B5FEF7F9FCFFF77A
:101A6000F1FF08BD70B594B000240194244B1A6CAA
:101A700042F080521A641B6C03F080530193019B67
:101A80000294204B1A6842F480421A601B6803F4E7
:101A900080430293029B01230893099302250E952C
:101AA0004FF480030F93192310934FF4A8731193ED
:101AB00012950426139608A8FEF7FCFE0F23039345
:101AC000049505944FF4A05306934FF48053079365
:101AD000052103A8FFF762F9FFF792FA0A4BA3FB6F
:101AE00000308009FEF722FD3046FEF735FD224624
:101AF00021464FF0FF30FEF7D7FC14B070BD00BF99
:101B00000038024000700040D34D621008B5FEF767
:101B100085FCFFF7A7FFFFF745FF08BD10B582B0B2
:101B200000240094194B1A6B42F001021A631A6BDD
:101B300002F001020092009A01945A6C42F01002E5
:101B40005A645B6C03F010030193019B10494FF43E
:101B5000C0630B6002234B608C600323CB600723C0
:101B60000B610C48FEF714FD0B480C4B03604FF45F
:101B7000165343608460C460046184610C23436134
:101B8000C461FFF771FC02B010BD00BF0038024015
:101B900028010020000002403C010020001001400C
:101BA00008B5FFF7BBFF4FF6FF730F2209490A483C
:101BB000FFF7EAFC0523012208490748FFF750FD1B
:101BC0000028F7D10523012204490348FFF7DCFC74
:101BD000F0E700BF100000203C0100207C01002045
:101BE000704700BF014B1868704700BF800000209D
:101BF000034613F8012B002AFBD1181A013870474D
:101C000030B5141E05469BB0184604DA8B232B60B2
:101C10004FF0FF301DE04FF40273ADF80C3014BFED
:101C200004F1FF332346029305934FF6FF730091AF
:101C30000491ADF80E3002461E9B6946284600F01E
:101C400073F8431CBCBF8B232B6014B1009B002294
:101C50001A701BB030BD000007B5009313460A464A
:101C6000014603480068FFF7CBFF03B05DF804FBB3
:101C7000800000202DE9F0478E689E4282460C4687
:101C8000914698463ED88A8912F4906F3AD02568DA
:101C900009696F1A6569022305EB450595FBF3F5A4
:101CA0007B1C43449D4238BF1D4653050FD5294632
:101CB00000F092FB064698B13A46216900F018FB05
:101CC000A38923F4906343F08003A38113E02A46A1
:101CD00000F0E0FB064670B92169504600F02EFB8B
:101CE0000C23CAF80030A38943F04003A3814FF0CE
:101CF000FF30BDE8F087266165613E44ED1B26603C
:101D0000A5604646464528BF4646324649462068B5
:101D100000F0F9FAA3689B1BA36023681E442660A9
:101D20000020BDE8F08700002DE9F04F9DB080460F
:101D300003938B891C060D4616460DD50B695BB9BE
:101D4000402100F049FB2860286118B90C23C8F82D
:101D50000030CDE040236B610023099320238DF8F0
:101D60002930DFF89CB130238DF82A3037463C46C5
:101D700014F8013B1BB9B7EB060910D003E0252B83
:101D8000F9D02746F3E74B46324629464046FFF74F
:101D900071FF013000F0A780099B4B4409933B7809
:101DA000002B00F0A08000234FF0FF320493079334
:101DB000059206938DF853301A9301260522217857
:101DC0004E4800F045FA671C049B38B14B4A801A14
:101DD00006FA00F0184304903C46EFE7D90644BFEA
:101DE00020228DF853201A0744BF2B228DF8532050
:101DF00022782A2A03D0079A00210A200BE0039AAE
:101E0000111D12680391002A10DA524243F00200B9
:101E1000079204900BE0274601343B78303B092BB6
:101E200003D800FB02320121F5E701B107923B78AC
:101E30002E2B1ED17B782A2B0AD1039B1A1D1B68DF
:101E40000392002BB8BF4FF0FF330237059310E029
:101E500000230593781C19460A24074601303A7876
:101E6000303A092A03D804FB01210123F5E703B125
:101E7000059103223978224800F0EAF940B1402365
:101E8000CBEB000003FA00F0049B184304900137E9
:101E900039781C488DF8281006227E1C00F0D8F9ED
:101EA00088B1194B33B9039B073323F00703083379
:101EB000039314E003AB00932A46144B04A9404655
:101EC000AFF3008007E003AB00932A460F4B04A951
:101ED000404600F093F8B0F1FF3F824603D0099BE3
:101EE0005344099342E7AB895B0601D4099801E0AA
:101EF0004FF0FF301DB0BDE8F08F00BFF0270008A5
:101F0000F6270008FA27000800000000751C0008EA
:101F10002DE9F04791461F460A698B68DDF820805D
:101F20009342B8BF1346C9F8003091F843200646E3
:101F30000C4612B10133C9F800302368990642BF3C
:101F4000D9F800300233C9F80030256815F00605CD
:101F500010D104F1190A07E00123524639463046F0
:101F6000C04701301AD00135E368D9F800209B1A28
:101F70009D42F1DB94F843302268003318BF0123FF
:101F800092060FD5E1185A1C302081F843002244F4
:101F900094F8451082F84310023303E04FF0FF300D
:101FA000BDE8F08704F1430239463046C0470130AE
:101FB000F4D02268D9F80050E36802F00602042A3F
:101FC00008BF5D1B2269A3680CBF25EAE5750025E3
:101FD0009342C4BF9B1AED184FF000091A344D45C7
:101FE00009D00123224639463046C0470130D5D0BA
:101FF00009F10109F3E70020BDE8F0872DE9F0437E
:1020000017460A7E85B06E2A984606460C460C9BFB
:1020100001F1430E00F0AE8011D8632A22D009D816
:10202000002A00F0BB80582A40F0CA8081F8452081
:10203000834955E0642A1ED0692A1CD0C0E0732A67
:1020400000F0B08009D86F2A2ED0702A40F0B880F6
:102050000A6842F020020A603EE0752A24D0782AFD
:102060003AD0ADE01A6801F14205111D19601368FC
:1020700084F84230A8E021681A6811F0800F02D07D
:10208000111D196008E011F0400F02F10401196000
:1020900002D0B2F9003000E01368002B3CDA2D22A8
:1020A0005B4284F8432037E021681A6811F0800F02
:1020B00002D0111D196007E011F0400F02F1040178
:1020C000196001D0138800E01368227E5C496F2AF2
:1020D00014BF0A2208221BE078225A4984F84520BE
:1020E0002268186812F0800F00F104051D6003D10A
:1020F000550601D5038800E00368D00744BF42F0CD
:10210000200222601BB9226822F0200222601022E5
:10211000002084F8430001E049490A226568A5606F
:10212000002D08DB206820F0040020602BB9002D72
:102130007DD175460CE0002B79D07546B3FBF2F0EB
:1021400002FB1033CB5C05F8013D03460028F5D1B6
:10215000082A0BD12368DA0708D5236962689A42F6
:10216000DEBF302305F8013C05F1FF35C5EB0E035A
:1021700023612EE008681A68496910F0800F03D0C7
:10218000101D1860136808E010F0400F02F1040001
:102190001860136801D0198000E0196000232361E2
:1021A000754616E01A68111D1960156862680021ED
:1021B000284600F04DF808B1401B6060636804E0F9
:1021C00004F1420584F8422001232361002384F8AE
:1021D0004330CDF800803B4603AA21463046FFF746
:1021E00097FE013002D14FF0FF3026E023692A46E6
:1021F00039463046C0470130F5D023689B0710D5DB
:10220000002504F1190907E001234A463946304602
:10221000C0470130E7D00135E368039A9B1A9D421D
:10222000F2DBE068039B9842B8BF184605E00B78E4
:1022300084F8423004F142058AE705B0BDE8F08336
:10224000012800081228000800000000000000001B
:1022500001F0FF01102A2BDB10F0070F08D010F857
:10226000013B013A8B422DD010F0070F42B3F6D15B
:10227000F0B441EA012141EA014122F007047FF074
:1022800000070023F0E80256083C85EA010586EACB
:10229000010685FA47F5A3FA87F586FA47F6A5FA07
:1022A00087F68EB9EED1F0BC01F0FF0102F0070213
:1022B00032B110F8013B013A83EA010313B1F8D1BE
:1022C0000020704701387047002D06BF354603389F
:1022D000073815F0010F07D1013015F4807F02BFD8
:1022E000013015F4C03F0130F0BC0138704700BF29
:1022F00010B5431E0A44914204D011F8014B03F873
:10230000014FF8E710BD884210B501EB020301D878
:10231000421E0BE09842FBD28118D21AD34204D05D
:1023200013F8014D01F8014DF8E710BD994204D0B2
:1023300011F8014B02F8014FF8E710BD38B505461A
:10234000002946D051F8043C0C1F002BB8BFE418FC
:1023500000F0D6F81F4A1368114613B96360146081
:1023600032E0A3420ED92268A018834204BF186845
:102370005B68636004BF121822600C6024E0A24214
:1023800003D813465A68002AF9D118681918A142CF
:102390000BD12168014458188242196014D1106889
:1023A00052685A60014419600EE002D90C232B6078
:1023B0000AE021686018824204BF106852686260B7
:1023C00004BF091821605C602846BDE8384000F071
:1023D00098B838BD1801002070B5CD1C25F0030554
:1023E00008350C2D38BF0C25002D064601DBA9420F
:1023F00002D90C23336046E000F082F8234B1C68BE
:102400001A462146A1B10B685B1B0ED40B2B03D9D6
:102410000B60CC18CD501EE08C420DBF63684B683A
:102420006360136018BF0C4615E00C464968E9E785
:10243000174C23681BB9304600F052F8206029463B
:10244000304600F04DF8431C18D0C41C24F003049F
:10245000A0420DD12560304600F053F804F10B0086
:10246000231D20F00700C31A0ED05A42E25070BD5F
:10247000211A304600F034F80130EBD10C233360E0
:10248000304600F03EF8002070BD00BF180100206B
:1024900014010020F8B5074615460E4621B911462D
:1024A000BDE8F840FFF798BF1AB9FFF747FF284685
:1024B000F8BD00F027F885420ED929463846FFF7C7
:1024C0008BFF044650B131462A46FFF711FF3146D3
:1024D0003846FFF733FF01E03046F8BD2046F8BD2F
:1024E00038B5064C0023054608462360FFF732F94D
:1024F000431C02D1236803B12B6038BD20010020AA
:102500007047704751F8040C0028BEBF091851F8F5
:10251000043CC018043870472E2E2F7379737465ED
:102520006D2F7372632F73746D333266342D68614F
:102530006C2F73746D3332663478785F68616C5FCA
:10254000636F727465782E63000000002E2E2F7367
:10255000797374656D2F7372632F73746D33326684
:10256000342D68616C2F73746D3332663478785F04
:1025700068616C5F6770696F2E6300000000000087
:102580000102030401020304060708092E2E2F731B
:10259000797374656D2F7372632F73746D33326644
:1025A000342D68616C2F73746D3332663478785FC4
:1025B00068616C5F7263632E630000002E2E2F73C0
:1025C000797374656D2F7372632F73746D33326614
:1025D000342D68616C2F73746D3332663478785F94
:1025E00068616C5F756172742E63000061626F7266
:1025F0007428292C2065786974696E672E2E2E0048
:102600002C2066756E6374696F6E3A2000000000BE
:10261000617373657274696F6E2022257322206660
:1026200061696C65643A2066696C652022257322B5
:102630002C206C696E65202564257325730A0000C3
:102640006173736572745F706172616D28292066B1
:1026500061696C65643A2066696C65202225732285
:102660002C206C696E652025640A00006D61696E1E
:1026700028617267633D25642C20617267763D5B3B
:10268000000000002C200000222573220000000022
:102690005D293B0A00000000537461636B20667281
:1026A000616D653A0A000000205230203D2020254F
:1026B0003038580A00000000205231203D202025EB
:1026C0003038580A00000000205232203D202025DA
:1026D0003038580A00000000205233203D202025C9
:1026E0003038580A0000000020523132203D2025A9
:1026F0003038580A00000000204C52203D20202590
:102700003038580A00000000205043203D2020258A
:102710003038580A0000000020505352203D202538
:102720003038580A000000004653522F4641523AB2
:102730000A0000002043465352203D202025303817
:10274000580A00002048465352203D2020253038AA
:10275000580A00002044465352203D20202530389E
:10276000580A00002041465352203D202025303891
:10277000580A0000204D4D464152203D202530385A
:10278000580A00002042464152203D202025303882
:10279000580A00004D6973630A000000204C522F54
:1027A0004558435F52455455524E3D2025303858C8
:1027B0000A0000005B486172644661756C745D0AD2
:1027C000000000005B4275734661756C745D0A0021
:1027D0005B55736167654661756C745D0A00000046
:1027E00000000000000000000102030406070809C1
:1027F000232D302B2000686C4C00656667454647EA
:10280000003031323334353637383941424344456C
:1028100046003031323334353637383961626364DB
:03282000656600EA
:102824007856341290000020000000000024F400C8
:10283400426F6F74696E675F55415254310A0D00DF
:102844000000000000000000000000000000000084
:102854000000000000000000000000000000000074
:102864000000000000000000000000000000000064
:102874000000000000000000000000000000000054
:102884000000000000000000000000000000000044
:102894000000000000000000000000000000000034
:0828A400200000203254769858
:040000050800018965
:00000001FF
