:020000040800F2
:1000000000000220B9020008C1020008C502000871
:100010000D03000811030008590300080000000048
:10002000000000000000000000000000A103000824
:10003000A503000800000000A9030008AD20000887
:10004000BD030008BD030008BD030008BD03000890
:10005000BD030008BD030008BD030008BD03000880
:10006000BD030008BD030008BD030008BD03000870
:10007000BD030008BD030008BD030008BD03000860
:10008000BD030008BD030008BD030008BD03000850
:10009000BD030008BD030008BD030008BD03000840
:1000A000BD030008BD030008BD030008BD03000830
:1000B0009D230008BD030008BD030008BD03000820
:1000C000BD030008BD030008BD030008BD03000810
:1000D000BD0300088D230008BD030008BD03000810
:1000E000BD030008BD030008BD030008BD030008F0
:1000F000BD030008BD030008BD030008BD030008E0
:10010000BD030008BD030008BD030008BD030008CF
:10011000BD030008BD030008BD030008BD030008BF
:10012000BD030008BD030008BD030008BD030008AF
:10013000BD0300080000000000000000BD0300082F
:10014000BD030008BD030008BD030008BD0300088F
:10015000BD030008BD030008BD030008BD0300087F
:10016000BD030008BD030008BD030008BD0300086F
:10017000BD030008BD0300080000000000000000EF
:10018000BD030008BD03000800B583B001F090FE78
:10019000384B394A1360394A136039490CE00A6810
:1001A0004B6801F10C04886803E01168196004339E
:1001B00004329842F9D82146324B9942EFD32E4B64
:1001C0001A68314B9A4204D12C4B1A682F4B9A4231
:1001D00000D0FEE7274B2E4A13602E4A13602E4BA9
:1001E0000AE0194651F8082B5B6802E00020106015
:1001F00004329A42FAD30B46284A9342F1D3244B55
:100200001B6813B9234B1B6803B1FEE701F0A8FF7D
:10021000694601A801F0EAFD214C224B1C1BA410E9
:10022000002504E01E4B53F8253098470135AC42B9
:10023000F8DC1D4C1D4B1C1BA410002504E01A4BC0
:1002400053F8253098470135AC42F8DC0099019805
:1002500002F080F80546164C164B1C1BA41004E057
:10026000013C134B53F824309847002CF8DC284607
:1002700001F08EFDBABADECA000000208400002022
:10028000C0030008D8030008785634123254769818
:1002900088000020D0020020D8030008E8030008EE
:1002A000E8030008E8030008E8030008E803000882
:1002B000E8030008E803000808B5FFF765FF00BF82
:1002C00000BEFEE71EF0040F0CBFEFF30880EFF353
:1002D00009807146364A10472DE9F04182B0044644
:1002E0008846084B5E6B9F6B9D6A074801F090FD46
:1002F000CDF800803B4632462946204601F0E4FD19
:1003000000BEFEE700ED00E0A42F000800BEFEE7FF
:100310001EF0040F0CBFEFF30880EFF30980714665
:10032000244A10472DE9F04182B004468846084B24
:100330005E6B9F6B9D6A074801F06AFDCDF80080F7
:100340003B4632462946204601F0BEFD00BEFEE790
:1003500000ED00E0B42F00081EF0040F0CBFEFF317
:100360000880EFF309807146134A10472DE9F041E8
:1003700082B004468846084B5E6B9F6B9D6A0748B7
:1003800001F046FDCDF800803B4632462946204626
:1003900001F09AFD00BEFEE700ED00E0C02F00086E
:1003A00000BEFEE700BEFEE700BEFEE770470000AD
:1003B000D9020008250300086D03000800BEFEE70F
:1003C00014300008000000208800002014300008CD
:1003D000000000100000001088000020D40200205F
:0803E0000000001000000010F5
:1003F00010B50446074B1B680748A0FB0330800973
:1004000000F0AAF8002221464FF0FF3000F04CF82F
:10041000002010BD0C000020D34D621008B50B4B1E
:100420001A6842F400721A601A6842F480621A6014
:100430001A6842F480721A60032000F017F80F2047
:10044000FFF7D6FF01F0A0FF002008BD003C0240EE
:10045000024A136801331360704700BF2001002077
:10046000014B1868704700BF2001002010B50446FA
:10047000C31E042B03D9A421094801F0BFFC094A7B
:10048000D36823F4E0631B041B0C240204F4E0642F
:10049000234343F0BF6343F40033D36010BD00BF78
:1004A000D82C000800ED00E070B504460E46154655
:1004B0000F2A03D9BC211A4801F0A0FC0F2E03D942
:1004C000BD21174801F09AFC164BDA68C2F30222EC
:1004D000C2F10701042928BF0421131D062B01D9ED
:1004E000033A00E00022012303FA01F1013931400F
:1004F000914003FA02F2013A2A400A43002C06DA3C
:1005000004F00F041201D2B2074B1A5570BD12014C
:10051000D2B204F1604404F5614484F8002370BD54
:10052000D82C000800ED00E014ED00E010B5041E2A
:1005300003DAD021064801F061FC620904F01F04CF
:10054000012303FA04F4034B43F8224010BD00BF1B
:10055000D82C000800E100E00138B0F1807F0AD219
:10056000064B5860F021064A82F82310002098605C
:1005700007221A6070470120704700BF10E000E0BA
:1005800000ED00E010B50446042805D020B140F28B
:10059000B311084801F032FC042C05D1064A136857
:1005A00043F00403136010BD034A136823F00403EF
:1005B000136010BDD82C000810E000E090F8353032
:1005C000DBB2022B03D08023436501207047052353
:1005D00080F835300268136823F0010313600020AF
:1005E000704700BF2DE9F04782B080460F46A14B0F
:1005F000984223D003F5806398421FD003F58063AF
:1006000098421BD003F58063984217D003F58063AE
:10061000984213D003F5806398420FD003F58063AE
:1006200098420BD003F58063984207D003F58063AE
:10063000984203D0C521904801F0E0FB3B881BB9EC
:10064000C6218D4801F0DAFB7B68012B22D9112BE2
:1006500020D0022B1ED0122B1CD0884A934219D0D6
:1006600002F58012934215D002F58012934211D008
:10067000A2F5F81293420DD002F58012934209D0F0
:1006800002F58012934205D0032B03D0C7217A488C
:1006900001F0B4FBBB68022B03D9C821764801F0F6
:1006A000ADFB002526E10124AC403E682640B44263
:1006B00040F01F817B68022B01D0122B45D13B6992
:1006C0009BB3092B31D083B37BB373B36BB3012BD3
:1006D0002BD02AD0022B28D027D026D0032B24D0F1
:1006E000042B22D021D020D0052B1ED01DD0092BC9
:1006F0001BD0062B19D0092B17D0072B15D014D0DF
:1007000013D0082B11D010D00FD0092B0DD00CD046
:100710000A2B0AD009D00C2B07D006D005D00F2BFE
:1007200003D0D921544801F069FBEA08083258F88F
:10073000220005F0070399000F238B4020EA0300F5
:100740003B698B40034348F82230D8F800304FEA29
:10075000450A4FF0030909FA0AF96FEA090903EAA1
:1007600009027B6803F0030303FA0AF31343C8F892
:1007700000307B685A1E012A03D9112B01D0122B9D
:100780001BD1FB68032B03D9EC213B4801F036FB5E
:10079000D8F8083009EA0302FB6803FA0AF31343A6
:1007A000C8F80830D8F8043023EA04047B68C3F39F
:1007B0000013AB401C43C8F80440D8F80C3009EAD9
:1007C0000309BB6803FA0AF349EA0303C8F80C30CB
:1007D0007B6813F0805F00F08C8000230193284B2E
:1007E0005A6C42F480425A645B6C03F48043019378
:1007F000019BA9088A1C234B53F8220005F0030330
:100800009B000F229A4020EA02001A4A904521D00C
:1008100002F5806290451FD002F5806290451DD0A0
:1008200002F5806290451BD002F58062904519D098
:1008300002F58062904517D002F58062904515D090
:1008400002F58062904513D002F5806290451BD17D
:1008500008221AE0002218E0012216E0022214E029
:10086000032212E0042210E005220EE006220CE032
:1008700007220AE0000002400C2D000800001110C1
:100880000038024000380140092202FA03F3034312
:1008900002311B4A42F821301A4B1A68F34302EA2C
:1008A0000301786810F4803F01D046EA0201154A3E
:1008B0001160526803EA0201786810F4003F01D029
:1008C00046EA02010F4A5160926803EA0201786821
:1008D00010F4801F01D046EA02010A4A9160D268F2
:1008E0001340796811F4001F01D046EA0203054A5B
:1008F000D36001350F2D7FF6D6AE02B0BDE8F0878C
:1009000000380140003C014070B5064615460C46D3
:1009100021B940F2B111084801F070FA012D04D953
:100920004FF4D971044801F069FA0DB1B46170BD9A
:100930002404B46170BD00BF0C2D000830B583B035
:10094000044603680F2B03D9F5219C4801F056FAA1
:10095000236813F0010F45D06368012B05D9052BDF
:1009600003D0FA21954801F049FA954B9B6803F0B2
:100970000C03042B0AD0924B9B6803F00C03082B4A
:100980000CD18F4B5B6813F4800F07D08C4B1B6826
:1009900013F4003F26D0636823BBCCE12279894B56
:1009A0001A7063687BB1FFF75BFD054605E0FFF752
:1009B00057FD401B642800F2C081814B1B6813F473
:1009C000003FF4D00EE0FFF74BFD054605E0FFF7D2
:1009D00047FD401B642800F2B281794B1B6813F479
:1009E000003FF4D1236813F0020F6AD0E368012BB3
:1009F00004D94FF49671714801F000FA23691F2B56
:100A000004D940F22D116D4801F0F8F96C4B9B6848
:100A100013F00C0F0AD06A4B9B6803F00C03082BF1
:100A20001BD1674B5B6813F4800F16D1644B1B68B6
:100A300013F0020F03D0E368012B40F0828160487D
:100A4000036823F0F8012369F82292FAA2F2B2FABD
:100A500082F293400B43036033E0E368FBB1012271
:100A6000594B1A60FFF7FCFC054605E0FFF7F8FC60
:100A7000401B022800F26781514B1B6813F0020FE4
:100A8000F4D04F48036823F0F8012369F82292FA62
:100A9000A2F2B2FA82F293400B43036011E000220B
:100AA000494B1A60FFF7DCFC054605E0FFF7D8FC70
:100AB000401B022800F24981414B1B6813F0020FD2
:100AC000F4D1236813F0080F2ED06369012B04D9E9
:100AD00040F26D11394801F091F9636993B1012237
:100AE0003A4B1A60FFF7BCFC054605E0FFF7B8FC7F
:100AF000401B022800F22B81314B5B6F13F0020F79
:100B0000F4D011E00022314B1A60FFF7A9FC054632
:100B100005E0FFF7A5FC401B022800F21A81284BD4
:100B20005B6F13F0020FF4D1236813F0040F60D051
:100B3000A368012B06D9052B04D040F297111F485A
:100B400001F05CF9002301931D4B1A6C42F08052B6
:100B50001A641B6C03F080530193019B1C4A1368B9
:100B600043F480731360FFF77BFC054605E0FFF755
:100B700077FC401B022800F2EE80154B1B6813F433
:100B8000807FF4D0227A134B1A70A3688BB1FFF7E1
:100B900067FC054607E0FFF763FC401B41F2883322
:100BA000984200F2DA80064B1B6F13F0020FF2D06E
:100BB0001FE0FFF755FC054616E000BF4C2D00086E
:100BC000003802400238024000004742800E47428F
:100BD0000070004070380240FFF742FC401B41F2B9
:100BE0008833984200F2BB80634B1B6F13F0020FF7
:100BF000F2D1A369022B04D94FF4E6715F4801F0EA
:100C0000FDF8A369002B00F0AC805B4A926802F00B
:100C10000C02082A00F0A780022B79D1E3693BB1CE
:100C2000B3F5800F04D040F2D511544801F0E6F836
:100C3000236A3F2B04D94FF4EB71504801F0DEF8E2
:100C4000636A323BB3F5BF7F04D940F2D7114B48FA
:100C500001F0D4F8A36A022B0AD0042B08D0062B8B
:100C600006D0082B04D04FF4EC71444801F0C6F8CC
:100C7000E36A043B0B2B04D940F2D9113F4801F041
:100C8000BDF800223E4B1A60FFF7EAFB054604E080
:100C9000FFF7E6FB401B022867D8374B1B6813F0B1
:100CA000007FF5D1E169236A1943636A47F6C07290
:100CB00092FAA2F2B2FA82F293401943A36A5B0855
:100CC0005A1E4FF4403393FAA3F3B3FA83F302FAB4
:100CD00003F30B43E26A4FF0706191FAA1F1B1FAAC
:100CE00081F18A401343244A53600122244B1A6045
:100CF000FFF7B6FB044604E0FFF7B2FB001B022837
:100D000035D81D4B1B6813F0007FF5D0002031E073
:100D100000221B4B1A60FFF7A3FB044604E0FFF719
:100D20009FFB001B022824D8134B1B6813F0007F85
:100D3000F5D100201EE001201CE003201AE0032072
:100D400018E0012016E0032014E0032012E0032045
:100D500010E003200EE003200CE003200AE0032053
:100D600008E0002006E0012004E0032002E0032068
:100D700000E0032003B030BD003802404C2D0008D5
:100D800060004742244B9B6803F00C03042B3FD0C8
:100D9000082B01D02148704710B41F4B586800F051
:100DA0003F005B6813F4800F10D01D4BB3FBF0F0D5
:100DB000194B5A6847F6C0710A4091FAA1F3B3FA89
:100DC00083F322FA03F303FB00F310E0134BB3FBAE
:100DD000F0F0114B5A6847F6C07402EA040194FA25
:100DE000A4F2B2FA82F221FA02F202FB00F30A4AFA
:100DF000506800F440324FF4403090FAA0F0B0FA5E
:100E000080F022FA00F001304000B3FBF0F001E086
:100E10000348704710BC7047003802400024F400BB
:100E200040787D0170B504460D460368013B0E2BEA
:100E300004D940F237218F4800F0E0FF072D04D994
:100E40004FF40E718B4800F0D9FF8B4B1B6803F0F9
:100E50000F039D4208D9EBB2874A1370136803F061
:100E60000F039D4240F0F480236813F0020F1DD061
:100E7000A368A3B1802B12D0902B10D0A02B0ED042
:100E8000B02B0CD0C02B0AD0D02B08D0E02B06D032
:100E9000F02B04D040F24F21764800F0AFFF7749A5
:100EA0008B6823F0F002A36813438B60236813F070
:100EB000010F6BD06368032B04D940F256216D48B3
:100EC00000F09CFF6268012A05D16C4B1B6813F48B
:100ED000003F0FD1BEE0931E012B05D8674B1B6866
:100EE00013F0007F06D1B7E0644B1B6813F0020FCC
:100EF00000F0B48061498B6823F0030313438B60D7
:100F0000FFF7AEFA06466368012B0FD107E0FFF743
:100F1000A7FA801B41F28833984200F2A180574B18
:100F20009B6803F00C03042BF1D12FE0022B0FD1AF
:100F300007E0FFF795FA801B41F28833984200F2F0
:100F400091804E4B9B6803F00C03082BF1D11DE000
:100F5000032B16D107E0FFF783FA801B41F2883399
:100F6000984200F28180454B9B6803F00C030C2BE8
:100F7000F1D10BE0FFF774FA801B41F288339842FD
:100F800074D83E4B9B6813F00C0FF3D13A4B1B689F
:100F900003F00F039D4207D2EAB2374B1A701B6869
:100FA00003F00F039D4263D1236813F0040F19D09F
:100FB000E36883B1B3F5805F0DD0B3F5A05F0AD0CD
:100FC000B3F5C05F07D0B3F5E05F04D04FF42D71E7
:100FD000284800F013FF29498B6823F4E052E368A6
:100FE00013438B60236813F0080F1AD0236983B171
:100FF000B3F5805F0DD0B3F5A05F0AD0B3F5C05F45
:1010000007D0B3F5E05F04D040F2BB21194800F0EF
:10101000F5FE1A4A936823F46043216943EAC10349
:101020009360FFF7AFFE154B9B6803F0F002F023CF
:1010300093FAA3F3B3FA83F322FA03F3104AD35CCF
:10104000D840104B18600F20FFF7D2F9002070BD78
:10105000012070BD012070BD012070BD012070BD58
:10106000032070BD032070BD032070BD032070BD40
:10107000012070BD4C2D0008003C024000380240A9
:101080003C2D00080C000020014B1868704700BF81
:101090000C00002008B5FFF7F7FF084B9B6803F42E
:1010A000E0524FF4E05393FAA3F3B3FA83F322FA36
:1010B00003F3034AD35CD84008BD00BF00380240A8
:1010C0003C2D000808B5FFF7DFFF084B9B6803F4D1
:1010D00060424FF4604393FAA3F3B3FA83F322FA26
:1010E00003F3034AD35CD84008BD00BF0038024078
:1010F0003C2D0008704700BF10B504460368234A22
:10110000934237D0B3F1804F34D0A2F57C42934262
:1011100030D002F5806293422CD002F58062934277
:1011200028D002F58062934224D002F58062934277
:1011300020D002F5704293421CD002F570529342C7
:1011400018D002F58062934214D002F58062934277
:1011500010D0A2F5983293420CD002F580629342EF
:1011600008D002F58062934204D04FF4B27108486F
:1011700000F044FE2268D36843F00103D360226884
:10118000136843F001031360002010BD000001400C
:101190007C2D0008704700BF704700BF704700BF3C
:1011A000704700BF10B5044603681A6912F0020FB9
:1011B00017D0DA6812F0020F13D06FF002021A6132
:1011C0000123037603689B6913F0030F02D0FFF736
:1011D000E3FF04E0FFF7DEFF2046FFF7DFFF002319
:1011E000237623681A6912F0040F19D0DA6812F016
:1011F000040F15D06FF004021A61022323762368CE
:101200009B6913F4407F03D02046FFF7C5FF05E03C
:101210002046FFF7BFFF2046FFF7C0FF00232376DD
:1012200023681A6912F0080F19D0DA6812F0080F53
:1012300015D06FF008021A61042323762368DB6956
:1012400013F0030F03D02046FFF7A6FF05E020466A
:10125000FFF7A0FF2046FFF7A1FF002323762368B6
:101260001A6912F0100F19D0DA6812F0100F15D0A9
:101270006FF010021A61082323762368DB6913F4E8
:10128000407F03D02046FFF787FF05E02046FFF7A9
:1012900081FF2046FFF782FF0023237623681A6927
:1012A00012F0010F09D0DA6812F0010F05D06FF0CB
:1012B00001021A61204601F045F823681A6912F00C
:1012C000800F09D0DA6812F0800F05D06FF080022D
:1012D0001A61204600F026F923681A6912F0400FBF
:1012E00009D0DA6812F0400F05D06FF040021A61A1
:1012F0002046FFF755FF23681A6912F0200F09D026
:10130000DA6812F0200F05D06FF020021A61204633
:1013100000F006F910BD00BF0368454A904214D0A2
:10132000B0F1804F13D0A2F57C42904211D002F56B
:10133000806290420FD002F5806290420DD002F59B
:10134000784290420BD101220AE0012208E00122FA
:1013500006E0012204E0012202E0012200E0002276
:101360001AB123F070034A681343314A90422CD0DB
:10137000B0F1804F2BD0A2F57C42904229D002F5EB
:101380008062904227D002F58062904225D002F51B
:101390007842904223D002F57052904221D002F55B
:1013A000806290421FD002F5806290421DD0A2F56B
:1013B000983290421BD002F58062904219D002F51B
:1013C0008062904217D1012216E0012214E001222E
:1013D00012E0012210E001220EE001220CE00122C5
:1013E0000AE0012208E0012206E0012204E00122D5
:1013F00002E0012200E000221AB123F44073CA681F
:10140000134303608B68C3620B688362084B984286
:1014100005D003F58063984203D1012302E0012344
:1014200000E000230BB10B690363012343617047A4
:101430000000014000286DD010B504460368364A0C
:10144000934236D0B3F1804F33D0A2F57C42934221
:101450002FD002F5806293422BD002F58062934236
:1014600027D002F58062934223D002F58062934236
:101470001FD002F5704293421BD002F57052934286
:1014800017D002F58062934213D002F58062934236
:101490000FD0A2F5983293420BD002F580629342AE
:1014A00007D002F58062934203D0D9211B4800F097
:1014B000A5FCA3685BB1102B09D0202B07D0402BD3
:1014C00005D0602B03D0DA21144800F097FC236983
:1014D0004BB1B3F5807F06D0B3F5007F03D0DB219D
:1014E0000E4800F08BFC94F8393013F0FF0F05D153
:1014F000002384F838302046FFF7FCFD022384F8EF
:101500003930211D2068FFF707FF012384F83930A7
:10151000002010BD01207047000001407C2D000814
:10152000704700BF704700BF0268D36823F4907310
:10153000D3600268536923F001035361202380F8CC
:101540003A30704790F83930DBB2212B2AD18368CA
:10155000B3F5805F0FD1036A02681B88C3F30803E9
:10156000536003691BB9036A0233036209E0036A2B
:101570000133036205E00268036A591C01621B78AB
:101580005360C38C013B9BB2C3846BB90268D368C0
:1015900023F08003D3600268D36843F04003D36034
:1015A0000020704702207047002070472DE9F84363
:1015B00004464268B14B9A4204D940F24F71B04898
:1015C00000F01CFCE3683BB1B3F5005F04D04FF4BE
:1015D000EA61AB4800F012FC236953B1B3F5806FA8
:1015E00007D0B3F5C06F04D040F25171A44800F0A9
:1015F00005FC63694FF6F372134200D123B940F240
:1016000052719F4800F0FAFB21680B6923F44052A5
:10161000E36813430B612068C36823F4164222F089
:101620000C02A1682369194363691943E3690B43F9
:101630001343C36021684B6923F44072A3691343C9
:101640004B61E369B3F5004F40F0BB80276803F1BD
:10165000804303F510439F4203D003F580639F420C
:1016600057D1FFF72FFD00EB800000EB800065688D
:101670006D00B0FBF5F5834EA6FB05356D092D0118
:10168000FFF720FD00EB800000EB800063685B004B
:10169000B0FBF3F9FFF716FD00EB800000EB8000D4
:1016A00063685B00B0FBF3F3A6FB03235B094FF019
:1016B000640808FB1393DB003233A6FB03235B09AA
:1016C0005B0003F4F8731D44FFF7FCFC00EB8000A3
:1016D00000EB800063685B00B0FBF3F9FFF7F2FCFE
:1016E00000EB800000EB800063685B00B0FBF3F36D
:1016F000A6FB03235B0908FB13984FEAC80808F10F
:101700003208A6FB0836C6F342163544BD60BDE874
:10171000F883FFF7BFFC00EB800000EB80006568FA
:101720006D00B0FBF5F5574EA6FB05356D092D0193
:10173000FFF7B0FC00EB800000EB800063685B000B
:10174000B0FBF3F9FFF7A6FC00EB800000EB800094
:1017500063685B00B0FBF3F3A6FB03235B094FF068
:10176000640808FB1393DB003233A6FB03235B09F9
:101770005B0003F4F8731D44FFF78CFC00EB800062
:1017800000EB800063685B00B0FBF3F9FFF782FCBD
:1017900000EB800000EB800063685B00B0FBF3F3BC
:1017A000A6FB03235B0908FB13984FEAC80808F15E
:1017B0003208A6FB0836C6F342163544BD60BDE8C4
:1017C000F8832668304B9E4203D003F580639E4227
:1017D0005CD1FFF777FC00EB800000EB80006568D0
:1017E000AD00B0FBF5F5274FA7FB05356D092D01C1
:1017F000FFF768FC00EB800000EB800063689B0053
:10180000B0FBF3F8FFF75EFC00EB800000EB80001C
:1018100063689B00B0FBF3F3A7FB03235B094FF066
:10182000640909FB13831B013233A7FB03235B0904
:1018300003F0F0031D44FFF745FC00EB800000EBD4
:10184000800063689B00B0FBF3F8FFF73BFC00EB04
:10185000800000EB800063689B00B0FBF3F3A7FB04
:1018600003235B0909FB13831B013233A7FB03230B
:10187000C3F343131D44B560BDE8F883A037A0004F
:10188000AC2D00081F85EB5100100140FFF702FC52
:1018900000EB800000EB80006568AD00B0FBF5F563
:1018A000254FA7FB05356D092D01FFF7F3FB00EB75
:1018B000800000EB800063689B00B0FBF3F8FFF74B
:1018C000E9FB00EB800000EB800063689B00B0FB4D
:1018D000F3F3A7FB03235B094FF0640909FB1383B0
:1018E0001B013233A7FB03235B0903F0F0031D4404
:1018F000FFF7D0FB00EB800000EB800063689B00EB
:10190000B0FBF3F8FFF7C6FB00EB800000EB8000B4
:1019100063689B00B0FBF3F3A7FB03235B0909FBA0
:1019200013831B013233A7FB0323C3F343131D446B
:10193000B560BDE8F88300BF1F85EB512DE9F0418C
:1019400005460F4616469846069C1EE0B4F1FF3F3A
:101950001BD02CB1FEF784FDC8EB0000844214D2EA
:101960002A68D36823F4D073D3602A68536923F0BC
:1019700001035361202385F8393085F83A3000237C
:1019800085F838300320BDE8F0812B681B6837EA02
:1019900003030CBF01230023B342D7D00020BDE8CE
:1019A000F08100BF704700BF002800F0868010B5AE
:1019B000044683691BB30368414A93420FD0A2F5E2
:1019C0004C4293420BD002F58062934207D002F55D
:1019D0004C42934203D0FE213A4800F00FFAA3692B
:1019E00053B3B3F5807F27D0B3F5007F24D0B3F590
:1019F000407F21D0FF21334800F000FA1CE003684B
:101A00002F4A934218D0A2F54C42934214D002F5CB
:101A10008062934210D002F5806293420CD002F5AE
:101A20008062934208D002F54442934204D040F2CF
:101A30000311244800F0E2F9A3683BB1B3F5805FDD
:101A400004D040F205111F4800F0D8F9E3693BB11A
:101A5000B3F5004F04D04FF483711A4800F0CEF96B
:101A600094F8393013F0FF0F05D1002384F8383093
:101A70002046FFF797FF242384F839302268D36883
:101A800023F40053D3602046FFF790FD22681369CA
:101A900023F4904313612268536923F02A035361AE
:101AA0002268D36843F40053D3600020E06320230E
:101AB00084F8393084F83A3010BD0120704700BFF7
:101AC00000100140AC2D00082DE9F04182B01E4607
:101AD00090F83930DBB2202B50D104460D46174622
:101AE00000294DD0002A4DD090F83830012B4BD032
:101AF000012380F838300023C363212380F8393074
:101B0000FEF7AEFC8046A784E78424E0013BE38433
:101B1000A368B3F5805F12D100964346002280216E
:101B20002046FFF70BFF88BB22682B88C3F308030E
:101B3000536023690BB902350DE001350BE00096C7
:101B40004346002280212046FFF7F8FE00BB2368B1
:101B50002A785A600135E38C002BD7D10096434692
:101B6000002240212046FFF7E9FE034690B92022DB
:101B700084F83920002284F838200CE002230AE09F
:101B8000012308E0012306E0022304E0032302E02E
:101B9000032300E00323184602B0BDE8F08100BF34
:101BA000704700BF08B50168CB6823F04003CB60E5
:101BB000202380F83930FFF7F3FF002008BD00BF75
:101BC000704700BF08B590F83A30DBB2222B3ED107
:101BD0008368B3F5805F13D1826A036943B90368F0
:101BE0005B68C3F308031380836A0233836218E0DF
:101BF00003685B68DBB21380836A0133836210E0A1
:101C0000036933B9836A5A1C8262026852681A7087
:101C100007E0826A531C836203685B6803F07F03FA
:101C20001370C38D013B9BB2C38593B90268D3681F
:101C300023F49073D3600268536923F00103536166
:101C4000202380F83A30FFF7BBFF002008BD0220B8
:101C500008BD002008BD00BF704700BF10B5044696
:101C600002681368D168506913F00F0209D113F0AC
:101C7000200F06D011F0200F03D02046FFF7A2FF5F
:101C800010BD002A66D040F20112104262D013F05B
:101C9000010F06D011F4807F03D0E26B42F0010205
:101CA000E26313F0040F06D010F0010F03D0E26BD3
:101CB00042F00202E26313F0020F06D010F0010FAF
:101CC00003D0E26B42F00402E26313F0080F06D087
:101CD00010F0010F03D0E26B42F00802E263E26B06
:101CE000002A4AD013F0200F05D011F0200F02D0A7
:101CF0002046FFF767FF23685B6903F04003E26B50
:101D000012F0080F00D1FBB12046FFF70DFC23684D
:101D10005A6912F0400F13D05A6922F040025A61FA
:101D2000636B4BB1154A1A65606BFEF747FC20B335
:101D3000606B036D984710BD2046FFF78DFF10BD07
:101D40002046FFF789FF10BD2046FFF785FF0023DF
:101D5000E36310BD13F0800F06D011F0800F03D0A5
:101D60002046FFF7EFFB10BD13F0400F05D011F038
:101D7000400F02D02046FFF715FF10BD811D00085F
:101D800008B5806B0023C385C384FFF765FF08BDDA
:101D9000FEE700BF08B5034800F052F80120FFF746
:101DA000F7FF00BFDC2D000808B50D4B1B6813B909
:101DB0000C4A0B4B1A600A4B1A68C31C23F003032E
:101DC000134409498B4206D900F0F0FA0C23036052
:101DD0004FF0FF3008BD02490B60104608BD00BF40
:101DE0008C000020D402002000FC012001230360AD
:101DF000014B0B60704700BF0400002008B50A4685
:101E00000146024800F004F8FFF7C4FF302E000836
:101E10000FB400B583B004AB53F8042B01938021B9
:101E2000064800F0FDFA002803DD0146034800F0F3
:101E30003BF803B05DF804EB04B070479400002059
:101E400010B5044600F0B8FA0146204600F02CF820
:101E50000121024800F028F810BD00BF202F000823
:101E600010B400221AE04FF06043D3F8803E13F024
:101E7000010F06D04FF06043D3F8003E13F0010F7E
:101E800001D110460DE04FF060431B68002BFAD0E3
:101E900004784FF060431C70013201308A42E2D373
:101EA000084610BC704700BF08B5FFF7D9FF08BD52
:101EB00008B500F081F8024B024A9A6008BD00BFE5
:101EC00000ED00E000000008F8B504460D46174696
:101ED0001E462648FFF79CFF21682548FFF798FF1C
:101EE00061682448FFF794FFA1682348FFF790FF3B
:101EF000E1682248FFF78CFF21692148FFF788FF3E
:101F000061692048FFF784FFA1691F48FFF780FF40
:101F1000E1691E48FFF77CFF1D48FFF779FF29465E
:101F20001C48FFF775FF1C4CE16A1C48FFF770FF67
:101F3000216B1B48FFF76CFFE16B1A48FFF768FF46
:101F400015F0800F03D039461748FFF761FF15F4ED
:101F5000004F03D031461548FFF75AFF1448FFF7EA
:101F600057FF06991348FFF753FFF8BD882E000866
:101F7000982E0008A82E0008B82E0008C82E0008C9
:101F8000D82E0008E82E0008F82E0008082F0008B8
:101F9000182F0008242F000800ED00E0342F00085F
:101FA000442F0008542F0008642F0008742F0008E5
:101FB000842F00088C2F00080C4B1A6842F0010295
:101FC0001A60002199601A6822F0847222F480322B
:101FD0001A60074A5A601A6822F480221A60D9608F
:101FE0004FF00062034B9A60704700BF0038024018
:101FF0001030002400ED00E0224B9B6803F00C033E
:10200000042B07D0082B09D0002B2DD11E4A1F4BC3
:102010001A602CE01E4A1D4B1A6028E0194B5A68C2
:102020005B6803F03F0312F4800F09D0184AB2FB3B
:10203000F3F2144B5B68C3F3881303FB02F208E06E
:10204000114AB2FBF3F30F4A5168C1F3881101FB47
:1020500003F20C4B5B68C3F3014301335B00B2FB3B
:10206000F3F30A4A136002E0074A084B1A60054B73
:102070009B68C3F30313074AD15C044A1368CB403F
:1020800013607047003802400024F4000C00002068
:1020900040787D01D02F0008034B1B681BB1024A1A
:1020A0001368013B136070472801002008B5FEF754
:1020B000CFF9FFF7F1FF08BD70B594B0002401948B
:1020C000244B1A6C42F080521A641B6C03F080534C
:1020D0000193019B0294204B1A6842F480421A60DB
:1020E0001B6803F480430293029B01230893099326
:1020F00002250E954FF480030F93192310934FF48C
:10210000A873119312950426139608A8FEF716FCDF
:102110000F230393049505944FF4A05306934FF4B3
:1021200080530793052103A8FEF77CFEFEF7ACFF62
:102130000A4BA3FB00308009FEF70EFA3046FEF78B
:1021400021FA224621464FF0FF30FEF7ADF914B0D8
:1021500070BD00BF0038024000700040D34D6210D7
:1021600008B5FEF75BF9FFF7A7FFFFF745FF08BDCE
:1021700082B00190019A43F2B06303FB02F3019332
:1021800002E0019B013B0193019B002BF9D102B0BE
:10219000704700BF82B00190019BC3EBC3035A009C
:1021A000019202E0019B013B0193019B002BF9D1BD
:1021B00002B0704710B582B0002400941D4B1A6B1A
:1021C00042F001021A631A6B02F001020092009AB7
:1021D00001945A6C42F010025A645B6C03F01003D5
:1021E0000193019B14494FF4C0630B6002234B60C1
:1021F0008C600323CB6007230B611048FEF7F2F9D4
:102200000F48104B03604FF4165343608460C46062
:10221000046184610C234361C461FFF7C5FB22465E
:1022200021462520FEF740F92520FEF77FF902B070
:1022300010BD00BF003802402C0100200000024009
:1022400040010020001001402DE9F04182B000253E
:102250000195184B1A6B42F004021A631B6B03F0D2
:1022600004030193019B144C012727606760A5605C
:102270000323E360114E21463046FEF7B3F94FF0D9
:102280000208C4F800800E4B636021463046FEF71A
:10229000A9F92A4641460720FEF706F90720FEF76E
:1022A00045F92A4639463046FEF72EFB284602B04D
:1022B000BDE8F08100380240BC0200200008024066
:1022C0000000111010B5074C012211462046FEF700
:1022D0001BFB0A20FFF75EFF002201212046FEF7CC
:1022E00013FB10BD0008024030B583B000250195F6
:1022F000124B1A6C42F001021A641B6C03F00103CA
:1023000001930F4C4FF08043236042F20F73E36060
:1023100042F2CF03636025611023A3602046FFF7DC
:1023200089F82046FEF7E8FE2A4629461C20FEF7DB
:10233000BBF81C20FEF7FAF803B030BD00380240AD
:1023400080010020024A136801331360704700BF08
:102350001401002008B5FFF72DFFFFF775FFFFF709
:10236000C3FF4FF6FF730F2205490648FFF7ACFB8A
:10237000FFF7A8FF4FF47A70FFF7FAFEF8E700BF07
:102380001000002040010020704700BF08B502483F
:10239000FFF764FC08BD00BF4001002008B50248FB
:1023A000FEF700FF08BD00BF80010020014B186848
:1023B000704700BF80000020034613F8012B002A5D
:1023C000FBD1181A0138704730B5141E05469BB072
:1023D000184604DA8B232B604FF0FF301DE04FF4DA
:1023E0000273ADF80C3014BF04F1FF33234602939F
:1023F00005934FF6FF7300910491ADF80E3002463D
:102400001E9B6946284600F073F8431CBCBF8B2313
:102410002B6014B1009B00221A701BB030BD00006D
:1024200007B5009313460A46014603480068FFF7C4
:10243000CBFF03B05DF804FB800000202DE9F047DE
:102440008E689E4282460C46914698463ED88A89BE
:1024500012F4906F3AD0256809696F1A65690223F2
:1024600005EB450595FBF3F57B1C43449D4238BFC6
:102470001D4653050FD5294600F08EFB064698B140
:102480003A46216900F014FBA38923F4906343F0DA
:102490008003A38113E02A4600F0DCFB064670B9F6
:1024A0002169504600F02AFB0C23CAF80030A389AA
:1024B00043F04003A3814FF0FF30BDE8F087266171
:1024C00065613E44ED1B2660A5604646464528BF33
:1024D000464632464946206800F0F5FAA3689B1B41
:1024E000A36023681E4426600020BDE8F08700003A
:1024F0002DE9F04F9DB0804603938B891C060D4655
:1025000016460DD50B695BB9402100F045FB2860EC
:10251000286118B90C23C8F80030CDE040236B6166
:102520000023099320238DF82930DFF89CB1302354
:102530008DF82A3037463C4614F8013B1BB9B7EBFF
:10254000060910D003E0252BF9D02746F3E74B46C8
:10255000324629464046FFF771FF013000F0A78060
:10256000099B4B4409933B78002B00F0A08000238B
:102570004FF0FF3204930793059206938DF8533082
:102580001A930126052221784E4800F041FA671C73
:10259000049B38B14B4A801A06FA00F018430490A5
:1025A0003C46EFE7D90644BF20228DF853201A0796
:1025B00044BF2B228DF8532022782A2A03D0079A71
:1025C00000210A200BE0039A111D12680391002AD2
:1025D00010DA524243F00200079204900BE02746C3
:1025E00001343B78303B092B03D800FB0232012138
:1025F000F5E701B107923B782E2B1ED17B782A2B71
:102600000AD1039B1A1D1B680392002BB8BF4FF021
:10261000FF330237059310E000230593781C194619
:102620000A24074601303A78303A092A03D804FBD5
:1026300001210123F5E703B10591032239782248EE
:1026400000F0E6F940B14023CBEB000003FA00F0C4
:10265000049B18430490013739781C488DF82810E2
:1026600006227E1C00F0D4F988B1194B33B9039BC4
:10267000073323F007030833039314E003AB0093FD
:102680002A46144B04A94046AFF3008007E003AB91
:1026900000932A460F4B04A9404600F093F8B0F18E
:1026A000FF3F824603D0099B5344099342E7AB891D
:1026B0005B0601D4099801E04FF0FF301DB0BDE882
:1026C000F08F00BFE02F0008E62F0008EA2F000877
:1026D000000000003D2400082DE9F04791461F4608
:1026E0000A698B68DDF820809342B8BF1346C9F8A9
:1026F000003091F8432006460C4612B10133C9F868
:1027000000302368990642BFD9F800300233C9F877
:102710000030256815F0060510D104F1190A07E00C
:102720000123524639463046C04701301AD00135A0
:10273000E368D9F800209B1A9D42F1DB94F84330FE
:102740002268003318BF012392060FD5E1185A1CE6
:10275000302081F84300224494F8451082F8431059
:10276000023303E04FF0FF30BDE8F08704F143028D
:1027700039463046C0470130F4D02268D9F80050BD
:10278000E36802F00602042A08BF5D1B2269A36801
:102790000CBF25EAE57500259342C4BF9B1AED18CE
:1027A0004FF000091A344D4509D00123224639461D
:1027B0003046C0470130D5D009F10109F3E70020C8
:1027C000BDE8F0872DE9F04317460A7E85B06E2AF2
:1027D000984606460C460C9B01F1430E00F0AE8075
:1027E00011D8632A22D009D8002A00F0BB80582AC9
:1027F00040F0CA8081F84520834955E0642A1ED004
:10280000692A1CD0C0E0732A00F0B08009D86F2A72
:102810002ED0702A40F0B8800A6842F020020A6088
:102820003EE0752A24D0782A3AD0ADE01A6801F14A
:102830004205111D1960136884F84230A8E0216830
:102840001A6811F0800F02D0111D196008E011F014
:10285000400F02F10401196002D0B2F9003000E02B
:102860001368002B3CDA2D225B4284F8432037E0CA
:1028700021681A6811F0800F02D0111D196007E05D
:1028800011F0400F02F10401196001D0138800E03B
:102890001368227E5C496F2A14BF0A2208221BE0BB
:1028A00078225A4984F845202268186812F0800F6F
:1028B00000F104051D6003D1550601D5038800E031
:1028C0000368D00744BF42F0200222601BB922688F
:1028D00022F0200222601022002084F8430001E050
:1028E00049490A226568A560002D08DB206820F0B0
:1028F000040020602BB9002D7DD175460CE0002B23
:1029000079D07546B3FBF2F002FB1033CB5C05F8CF
:10291000013D03460028F5D1082A0BD12368DA07C8
:1029200008D5236962689A42DEBF302305F8013C6E
:1029300005F1FF35C5EB0E0323612EE008681A6828
:10294000496910F0800F03D0101D1860136808E06B
:1029500010F0400F02F104001860136801D01980D4
:1029600000E0196000232361754616E01A68111D06
:102970001960156862680021284600F049F808B11E
:10298000401B6060636804E004F1420584F8422063
:1029900001232361002384F84330CDF800803B46B7
:1029A00003AA21463046FFF797FE013002D14FF0CF
:1029B000FF3026E023692A4639463046C0470130B9
:1029C000F5D023689B0710D5002504F1190907E00D
:1029D00001234A4639463046C0470130E7D0013529
:1029E000E368039A9B1A9D42F2DBE068039B9842DE
:1029F000B8BF184605E00B7884F8423004F1420570
:102A00008AE705B0BDE8F083F12F00080230000826
:102A100001F0FF01102A2BDB10F0070F08D010F88F
:102A2000013B013A8B422DD010F0070F42B3F6D193
:102A3000F0B441EA012141EA014122F007047FF0AC
:102A400000070023F0E80256083C85EA010586EA03
:102A5000010685FA47F5A3FA87F586FA47F6A5FA3F
:102A600087F68EB9EED1F0BC01F0FF0102F007024B
:102A700032B110F8013B013A83EA010313B1F8D1F6
:102A80000020704701387047002D06BF35460338D7
:102A9000073815F0010F07D1013015F4807F02BF10
:102AA000013015F4C03F0130F0BC0138704700BF61
:102AB00010B5431E0A44914204D011F8014B03F8AB
:102AC000014FF8E710BD884210B501EB020301D8B1
:102AD000421E0BE09842FBD28118D21AD34204D096
:102AE00013F8014D01F8014DF8E710BD994204D0EB
:102AF00011F8014B02F8014FF8E710BD38B5054653
:102B0000002946D051F8043C0C1F002BB8BFE41834
:102B100000F0D6F81F4A1368114613B963601460B9
:102B200032E0A3420ED92268A018834204BF18687D
:102B30005B68636004BF121822600C6024E0A2424C
:102B400003D813465A68002AF9D118681918A14207
:102B50000BD12168014458188242196014D11068C1
:102B600052685A60014419600EE002D90C232B60B0
:102B70000AE021686018824204BF106852686260EF
:102B800004BF091821605C602846BDE8384000F0A9
:102B900098B838BD1C01002070B5CD1C25F0030588
:102BA00008350C2D38BF0C25002D064601DBA94247
:102BB00002D90C23336046E000F082F8234B1C68F6
:102BC0001A462146A1B10B685B1B0ED40B2B03D90F
:102BD0000B60CC18CD501EE08C420DBF63684B6873
:102BE0006360136018BF0C4615E00C464968E9E7BE
:102BF000174C23681BB9304600F052F82060294674
:102C0000304600F04DF8431C18D0C41C24F00304D7
:102C1000A0420DD12560304600F053F804F10B00BE
:102C2000231D20F00700C31A0ED05A42E25070BD97
:102C3000211A304600F034F80130EBD10C23336018
:102C4000304600F03EF8002070BD00BF1C0100209F
:102C500018010020F8B5074615460E4621B9114661
:102C6000BDE8F840FFF798BF1AB9FFF747FF2846BD
:102C7000F8BD00F027F885420ED929463846FFF7FF
:102C80008BFF044650B131462A46FFF711FF31460B
:102C90003846FFF733FF01E03046F8BD2046F8BD67
:102CA00038B5064C0023054608462360FFF77CF83C
:102CB000431C02D1236803B12B6038BD24010020DE
:102CC0007047704751F8040C0028BEBF091851F82E
:102CD000043CC018043870472E2E2F737973746526
:102CE0006D2F7372632F73746D333266342D686188
:102CF0006C2F73746D3332663478785F68616C5F03
:102D0000636F727465782E63000000002E2E2F739F
:102D1000797374656D2F7372632F73746D333266BC
:102D2000342D68616C2F73746D3332663478785F3C
:102D300068616C5F6770696F2E63000000000000BF
:102D40000102030401020304060708092E2E2F7353
:102D5000797374656D2F7372632F73746D3332667C
:102D6000342D68616C2F73746D3332663478785FFC
:102D700068616C5F7263632E630000002E2E2F73F8
:102D8000797374656D2F7372632F73746D3332664C
:102D9000342D68616C2F73746D3332663478785FCC
:102DA00068616C5F74696D2E630000002E2E2F73B6
:102DB000797374656D2F7372632F73746D3332661C
:102DC000342D68616C2F73746D3332663478785F9C
:102DD00068616C5F756172742E63000061626F726E
:102DE0007428292C2065786974696E672E2E2E0050
:102DF0002C2066756E6374696F6E3A2000000000C7
:102E0000617373657274696F6E2022257322206668
:102E100061696C65643A2066696C652022257322BD
:102E20002C206C696E65202564257325730A0000CB
:102E30006173736572745F706172616D28292066B9
:102E400061696C65643A2066696C6520222573228D
:102E50002C206C696E652025640A00006D61696E26
:102E600028617267633D25642C20617267763D5B43
:102E7000000000002C20000022257322000000002A
:102E80005D293B0A00000000537461636B20667289
:102E9000616D653A0A000000205230203D20202557
:102EA0003038580A00000000205231203D202025F3
:102EB0003038580A00000000205232203D202025E2
:102EC0003038580A00000000205233203D202025D1
:102ED0003038580A0000000020523132203D2025B1
:102EE0003038580A00000000204C52203D20202598
:102EF0003038580A00000000205043203D20202593
:102F00003038580A0000000020505352203D202540
:102F10003038580A000000004653522F4641523ABA
:102F20000A0000002043465352203D20202530381F
:102F3000580A00002048465352203D2020253038B2
:102F4000580A00002044465352203D2020253038A6
:102F5000580A00002041465352203D202025303899
:102F6000580A0000204D4D464152203D2025303862
:102F7000580A00002042464152203D20202530388A
:102F8000580A00004D6973630A000000204C522F5C
:102F90004558435F52455455524E3D2025303858D0
:102FA0000A0000005B486172644661756C745D0ADA
:102FB000000000005B4275734661756C745D0A0029
:102FC0005B55736167654661756C745D0A0000004E
:102FD00000000000000000000102030406070809C9
:102FE000232D302B2000686C4C00656667454647F2
:102FF0000030313233343536373839414243444575
:1030000046003031323334353637383961626364E3
:03301000656600F2
:103014007856341290000020000000000024F400D0
:10302400426F6F74696E675F55415254310A0D00E7
:10303400000000000000000000000000000000008C
:10304400000000000000000000000000000000007C
:10305400000000000000000000000000000000006C
:10306400000000000000000000000000000000005C
:10307400000000000000000000000000000000004C
:10308400000000000000000000000000000000003C
:08309400200000203254769860
:040000050800018965
:00000001FF
